:020000040001F9
:10F000002048002015F401001DF401001FF4010048
:10F0100021F4010023F4010025F4010000000000A8
:10F0200000000000000000000000000027F40100C4
:10F0300029F40100000000002BF401002DF4010070
:10F04000CDFB01002FF401002500020049FC010066
:10F050002FF401002FF40100F1F901002FF4010059
:10F060002FF401002FF401002FF401002FF4010010
:10F070002FF401002FF401002FF401002FF4010000
:10F080002FF4010025FC01002FF401002FF40100F2
:10F0900061FD01002FF4010065FD01002FF4010066
:10F0A0002FF401002FF401002FF401002FF40100D0
:10F0B0002FF401002FF40100000000000000000008
:10F0C0002FF401002FF401002FF401002FF40100B0
:10F0D0002FF401002FF401002FF4010000000000C4
:10F0E0000000000000000000000000000000000020
:10F0F0000000000000000000000000000000000010
:10F1000000000000000000000000000000000000FF
:10F1100000000000000000000000000000000000EF
:10F40000DFF80CD000F0B0FA00480047912102006C
:10F41000204800200648804706480047FEE7FEE7F0
:10F42000FEE7FEE7FEE7FEE7FEE7FEE7FEE7FEE7B4
:10F4300089FD010001F4010040EA01039B0703D0AC
:10F4400009E008C9121F08C0042AFAD203E011F823
:10F45000013B00F8013B521EF9D27047D2B201E0E5
:10F4600000F8012B491EFBD270470022F6E710B5C9
:10F4700013460A4604461946FFF7F0FF204610BD22
:10F48000421C10F8011B0029FBD1801A70472DE99E
:10F49000F04D81EA030404F0004B21F000451446CE
:10F4A0004FF0000A23F0004150EA050220D054EA50
:10F4B00001021DD0C5F30A570246C5F31303C1F379
:10F4C0001300C1F30A5640F4801543F48013A7EBF0
:10F4D0000608101BD64608F2FD3873EB050002D370
:10F4E00008F1010801E092185B41B8F1000F03DA5E
:10F4F00000200146BDE8F08D00204FF48011064643
:10F5000084460EE0171B73EB050705D3121B63EB54
:10F51000050306434CEA010C49084FEA30009218F3
:10F520005B4150EA0107EDD152EA030012D082EAB2
:10F53000040083EA0501084305D0101BAB4106D245
:10F540000122002306E000224FF0004302E06FF0AA
:10F55000010253101AEB06004CEB085110EB0A00A5
:10F5600041EB0B01BDE8F04D00F058B80EB5C10FEE
:10F5700080EAE0700844CA07002140F233438DE876
:10F580000E000A460B4600F058F803B000BD30B537
:10F590000B46014600202022012409E021FA02F551
:10F5A0009D4205D303FA02F5491B04FA02F52844EB
:10F5B000151EA2F10102F1DC30BD2DE9F05F054618
:10F5C000002092469B4688460646814640241BE022
:10F5D000284641464746224600F0E7F953465A4638
:10F5E000C01A914110D311461846224600F0CEF9B8
:10F5F0002D1A67EB01084F4622460120002100F03A
:10F60000C5F917EB00094E41201EA4F10104DFDC0F
:10F61000484631462A464346BDE8F09F10B5141EC1
:10F6200073F1000408DA401C41F1000192185B41BB
:10F630001A4301D120F0010010BD2DE9F04D924692
:10F640009B4611B1B1FA81F202E0B0FA80F22032A9
:10F65000904600F09BF904460F4640EA0A0041EA52
:10F660000B0153465A46084313D0114653EA010092
:10F6700019D0C8F14002504600F097F905460E46F1
:10F6800050465946424600F081F9084305D0012012
:10F6900004E020463946BDE8F08D0020054346EAE7
:10F6A000E0762C4337430A986305E40AA0EB080090
:10F6B0000022FD0A44EA47540A3002D500200146E0
:10F6C000E9E7010510196941DDE9084500196941BB
:10F6D000BDE8F04DA2E72DE9FE4F804681EA030028
:10F6E000C00F0C46009021F0004123F00045B8EB1C
:10F6F0000200A94105D24046214690461C460B46D1
:10F70000024623F00040104347D0270DC7F30A00FC
:10F71000C3F30A510290401A019040286BDAC3F3F8
:10F72000130040F4801B0098924620B10023D2EBD6
:10F73000030A63EB0B0B01985946C0F14002504697
:10F7400000F024F906460D4650465946019A00F04D
:10F750003CF910EB08006141002487EA115284EA69
:10F76000E7731A4340D0009A62B3019A012A4FEA24
:10F77000075215DC001B61EB02014FF0004202EA68
:10F780000752CDE90042001C41F5801132462B465C
:10F79000FFF753FF03B0BDE8F08F40462146F9E77D
:10F7A000001B61EB0201001C41F5801300185B4156
:10F7B0002018A2F5001747EB030140EAD570B619EF
:10F7C0006D4111E06D084FEA360645EAC0754FEA13
:10F7D0000752001B61EB0201001C41F58011490832
:10F7E0004FEA30000019514132462B4603B0BDE8C4
:10F7F000F04FFFF713BF0098012240000023D0EB29
:10F80000020263EBE073009821464FEAE074B8EB24
:10F81000000061EB0401E9E783F000435BE781F05E
:10F82000004158E72DE9FE4F81EA030404F000444B
:10F8300021F0004100944FF0000B23F0004350EA08
:10F8400001045ED052EA03045BD0C3F30A54C1F34F
:10F850000A552C44A4F2F3340194A0FB0254C1F3E2
:10F86000130141F48011C3F3130343F4801301FB2C
:10F87000024400FB034E840A970A44EA815447EA93
:10F880008357A4FB076802958D0A05FB07854FEA9D
:10F89000932C04FB0C542705029D4FEA065847EAB7
:10F8A0001637B5EB08056EEB070C870E920E47EA8C
:10F8B000811742EA8312A7FB0201B6EB0B0164EB4E
:10F8C00000042B0D43EA0C335E1844EB1C50DA465F
:10F8D0005146E7FB0201C5F313044FEA0B3343EA39
:10F8E00014534FEA0432019C43EA0603A4F10C04CA
:10F8F0000294009CCDE900B4FFF79FFE03B0BDE881
:10F90000F08F00200146F9E7C1F30A52C1F3130159
:10F9100040F2FF3341F480119A4202DA002001469E
:10F92000704740F233439A42A2F2334202DC524221
:10F9300000F03BB800F02AB830B5041E71F10004A5
:10F9400004DB4FF00044404264EB0101141E73F1EC
:10F95000000405DB1C464FF00043524263EB0403F6
:10F96000994208BF904230BD064C074D06E0E06862
:10F9700040F0010394E8070098471034AC42F6D3F6
:10F98000FFF742FDA83D0200C83D0200202A04DB2B
:10F99000203A00FA02F1002070479140C2F12003A2
:10F9A00020FA03F3194390407047202A04DB203AE1
:10F9B00021FA02F00021704721FA02F3D040C2F18F
:10F9C00020029140084319467047202A06DBCB17D6
:10F9D000203A41FA02F043EAE07306E041FA02F30A
:10F9E000D040C2F120029140084319467047000000
:10F9F0002DE9FC5F0025DFF83891A8464FF48076AA
:10FA000001242F46304603F0A5FA38B1D9F8040393
:10FA1000204203D0304603F093FA2543361D64009C
:10FA20007F1CB6B2082FEDD34FF4BE74204603F00E
:10FA300091FA38B1204603F083FA3E4845F000457C
:10FA4000D0F800803C4E15F0FF0F15D001270024A0
:10FA50002F420DD009EB8401D1F81005D1F8101513
:10FA6000C0F3042056F82420C1F3014102B19047AD
:10FA70007F00641C082CEBD3002D56DA0020019087
:10FA8000401E4CE0701910F8501F90F9000021F052
:10FA9000C004401C38D0012000FA04FA1AEA090F09
:10FAA00032D04FEA911B204602F0ACF856F8200005
:10FAB000009010B9BBF1030F26D15146BBF1030FE3
:10FAC00002D1019808430190A00000F1A040D0F8B5
:10FAD00000071AEA080FC0F3014002D0022802D042
:10FAE00012E0032810D1BBF1030F07D102281AD06E
:10FAF0000221204603F00EFA7F1CFFB2009818B1D5
:10FB0000009A5946204690476D1C042DBAD3002F09
:10FB10000BD008480068404507D080460198002770
:10FB200081463D46AEE70321E3E7BDE8FC9F0000C8
:10FB30000060004010050050F426002000F01F0275
:10FB4000012191404009800000F1E020C0F88012BE
:10FB5000704700F01F02012191404009800000F130
:10FB6000E020C0F88011704700F01F020121914091
:10FB70004009800000F1E020C0F80011704700F05B
:10FB80001F02012191404009800000F1E020C0F8EF
:10FB90000011704700F01F020121914040098000D0
:10FBA00000F1E020C0F8001270474907090E002854
:10FBB00006DA00F00F0000F1E02080F8141D704715
:10FBC00000F1E02080F80014704700002DE9F041BA
:10FBD0004FF48077384602F0BBFC0124104EA50795
:10FBE00048B1384602F0BBFC0120C5F80803747028
:10FBF000002002F00FF84FF48277384602F0A8FC9C
:10FC000000280BD0384602F0AAFC0220C5F80803F1
:10FC1000B470BDE8F041012001F0FCBFBDE8F08107
:10FC2000E026002007480021C0F84011C0F8441128
:10FC3000C0F84811C0F84C11C0F80011C0F8041108
:10FC400003F06CBD00100140F8B510480E4D04469D
:10FC50004FF48C7103F086F9002813D00026C4F805
:10FC60001861D4F818010090A87E2C46FF2801D016
:10FC700003F05EF966762671216801B0201DBDE8AB
:10FC8000F0400847F8BD0000682500200030004023
:10FC900038B5144C0021A4F80D10617002210A46F9
:10FCA0000091014604F10D030F4802F0C9FE18B19E
:10FCB00000F0E0FF00E020BF60780028FBD00B4898
:10FCC00000684FF40031094A8143121D1160111D73
:10FCD00000F400300860BDE8384047F2305002F0D0
:10FCE00047BC000028210020003D02000405005010
:10FCF0001FB500200122032102FA00F39B0304D563
:10FD0000830003F1A043C3F80017401C2028F3D35D
:10FD1000104A4FF4003010600020121D10600E4C8D
:10FD20001DCC8DE81D0005208DF8030004208DF802
:10FD300002008DF8011002208DF800000648074AE5
:10FD40006946203802F0F0FD002801D000F092FF53
:10FD50001FBD000008050050203D02004D35020087
:10FD600003F054BC074810B5406830B18047002804
:10FD700007D0BDE8104000F07DBFBDE8104002F0A4
:10FD8000C7B810BD18220020F0B598480023021D06
:10FD900001780125101D4FF08056062907D11478EF
:10FDA000240704D10478C4F30314032C02D00629D9
:10FDB00004D00FE08F4F8E4C7C670EE01478240740
:10FDC00008D10478C4F30314032C06D0042C04D007
:10FDD000052C02D0062907D00EE0D6F84442864F03
:10FDE000C4F342343C6002E01478240704D1047860
:10FDF000C4F30314032C02D0062906D011E07F4C73
:10FE0000276827F0807727600EE01478240708D150
:10FE10000478C4F30314032C06D0042C04D0052C5E
:10FE200002D006290AD011E04FF08044C4F80C310A
:10FE3000C4F81031704C241F236002E014782407AA
:10FE400004D10478C4F30314032C02D0062905D08E
:10FE50000CE0694F032464373C600AE014782407FF
:10FE600004D10478C4F30314032C02D006290DD066
:10FE700014E0634F05243C60614C78342560604C8D
:10FE8000083423603F243F1D3C6002E014782407BF
:10FE900004D10478C4F30314052C02D0062957D0EA
:10FEA00068E058490968584A11605649091D0968AF
:10FEB000121D1160534908310968121D1160514922
:10FEC0000C310968121D11604E4910310968121D6C
:10FED00011604C4914310968121D116049491831EB
:10FEE0000968494A2032116046491C310968121DCF
:10FEF0001160444920310968121D116041492431C3
:10FF00000968121D11603F4928310968121D1160EE
:10FF10003C492C310968121D11603A493031096899
:10FF2000394A40321160374934310968121D116075
:10FF3000344938310968121D116032493C31096871
:10FF4000121D11602F4940310968121D116002E035
:10FF5000117809070ED10078C0F30310032803D0ED
:10FF6000042801D0052805D1D6F85802274900F009
:10FF70004F00086021487438016841F47001016045
:10FF8000BFF34F8FBFF36F8F4FF01021D1F80002F6
:10FF9000002803DBD1F80402002822DA1C4A15608D
:10FFA0001C480468002CFCD01524C1F800420568E8
:10FFB000002DFCD0C1F8044201680029FCD0136078
:10FFC00001680029FCD0BFF34F8F0C48F03801685E
:10FFD000114A01F4E06111430160BFF34F8F00BF8C
:10FFE000FDE70F490D480860F0BD0000E00F00F08C
:10FFF0000DF0ADBA00C007403C050040FCED00E04C
:020000040002F8
:10000000105600400404001020C50040E40E0040DB
:1000100004E5014000E401400400FA050090D0032B
:100020002C2200200448017F04480029024901D005
:1000300003F037BD03F0A6BC4C2700200020004091
:100040000FB4054B10B503A9044A029800F000F95B
:1000500010BC5DF814FB0000971E02001422002063
:100060000FB4084B10B504A902AA039800F0F0F8E9
:10007000044602A9002000F082FC204610BC5DF876
:1000800014FB00007F09020002E008C8121F08C12B
:10009000002AFAD170477047002001E001C1121F09
:1000A000002AFBD1704700000121202803DA81409B
:1000B0000548014003E0402802DA2038814009B1B8
:1000C0000120704700207047FC06FFBC2DE9FF5F50
:1000D00082B00021DDE90430020DDDF840B00343B9
:1000E00018D044F61050A2F2FF3242431514119872
:1000F00001281FD0A5EB0B00401C5FEA000A4FF05F
:1001000000064E4FDFF83891B046504615D5CAF17B
:10011000000413E0119801244AA3012801D16FEAD9
:100120000B010298119AC0E90031C0E9024206B001
:10013000BDE8F09FCBF10000DFE704460021404A14
:10014000491842EB0450CDE9001012E0E00707D057
:1001500032463B4640464946FFF764FB80468946A7
:1001600032463B4610461946FFF75CFB06460F46F3
:100170006410002CEAD1DDE90401DDE90023BAF1C5
:10018000000F06DAFFF74EFB42464B46FFF74AFBED
:1001900005E0FFF77CF942464B46FFF778F9044645
:1001A0000E460022284BFFF7C7FB03D84FF0FF3065
:1001B000014607E00022254B20463146FFF78BFA27
:1001C000FFF7A2FB102409E0002C0ADB0A2200231F
:1001D000FFF7F3F9039B30321A55641E50EA01020F
:1001E000F2D1641C039AC4F111031444119A012A38
:1001F00003D0012208430DD10AE0084304D00020B7
:100200004FF0110B119072E7A3EB0B056D1E0DE083
:100210005B4504DD4FF0000205F1010504E003DA5F
:100220004FF00002A5F10105002AECD002981199C7
:10023000C0E90231C0E9004579E700000000144040
:100240000000F03F300000000000F0430000E03FFD
:100250002DE9FF4F95B09B468946064600250FE2E3
:10026000252877D100242746F84A0121059400E08B
:10027000044316F8013F203B01FA03F01042F7D186
:1002800030782A2811D06FF02F033078A0F1300297
:10029000092A16D8059A44F0020402EB820203EB05
:1002A00042021044761C0590EFE759F8042B0592A2
:1002B000002A03DA504244F40054059044F002044A
:1002C000761C30782E2816D116F8010F44F004045D
:1002D0002A280DD06FF02F023078A0F13003092BBF
:1002E00009D807EB870302EB4303C718761CF3E733
:1002F00059F8047B761C30786C280FD006DC4C282B
:1003000017D068280DD06A2814D104E0742810D0C2
:100310007A280FD10DE044F400140AE044F480146C
:1003200001E044F440147278824202D104F5801452
:10033000761C761C307866280BD013DC582877D0D2
:1003400009DC002875D04528F6D04628F4D0472887
:100350001AD19DE118E0632835D0642879D065284A
:1003600012D195E1702873D008DC6728F1D0692894
:100370006FD06E280DD06F2806D1B5E073282CD031
:10038000752875D0782874D05A46179990476D1CF7
:1003900075E1C4F30250022809D003280DD0D9F822
:1003A000001004280DD00D6009F1040967E1D9F8A7
:1003B0000010EA17C1E90052F6E7D9F800100D80E5
:1003C000F2E70D70F0E719F8041B8DF8001000201B
:1003D0008DF80100EA46012003E059F804AB4FF024
:1003E000FF3061074FF0000102D40DE008F1010178
:1003F0008846B9420FDA8045F8DB1AF80810002960
:10040000F4D108E008F1010188468142FADB1AF8CC
:1004100008100029F6D105985B46A0EB0807214695
:100420003846179A00F094FA284400EB080507E0D4
:100430004DE029E10DE01AF8010B5A461799904753
:10044000B8F10108F7D25B4621463846179A13E106
:1004500042E00A220092C4F302524FF0000A022A3C
:1004600008D059F804CB032A4FEAEC710AD00DE00A
:1004700029E02AE009F1070121F00702F2E802C1B0
:10048000914609E00FFA8CFC4FEAEC71042A03D183
:100490004FFA8CFC4FEAEC71002907DA0A4600217A
:1004A000DCF1000C61EB02012D2202E0220504D5F3
:1004B0002B228DF80420012203E0E20701D0202244
:1004C000F7E7904659E00A2102E010220DE01021E2
:1004D0004FF0000A00910BE010224FF0000A44F0A8
:1004E00004040827009203E008224FF0000A00925B
:1004F000C4F30252022A05D059F804CB0021032A82
:1005000008D009E009F1070121F00702F2E802C171
:10051000914605E01FFA8CFC042A01D10CF0FF0C77
:100520004FF00008220728D5702806D0009B83F0E2
:10053000100353EA0A0305D00EE040228DF8042090
:10054000012208E05CEA010206D030228DF8042086
:100550008DF8050002229046009B83F0080353EAC1
:100560000A030AD15CEA010201D1620705D53022F3
:100570008DF804204FF001087F1E582804D034A0C5
:1005800003900EA802900DE036A0F9E753466046AE
:10059000009AFFF712F884460398825C0298401E86
:1005A000029002705CEA0100F0D1029806A9081AD4
:1005B00000F1200A600702D524F4803400E001270E
:1005C000574502DDA7EB0A0000E0002000EB0A011E
:1005D000009005984144401A0590E00306D45B461C
:1005E0002146179A059800F0B3F90544002706E064
:1005F00001A85A46C05D179990476D1C7F1C47455E
:10060000F6DBE0030CD55B462146179A059800F00F
:100610009FF9054404E030205A46179990476D1C15
:100620000099481E00900029F5DC08E00298029924
:100630005A460078491C0291179990476D1CBAF1EF
:100640000001AAF1010AF1DC65E1000009280100BE
:100650003031323334353637383961626364656638
:1006600000000000303132333435363738394142FA
:10067000434445460000000000F058F90544761C4C
:10068000307800287FF4ECAD19B02846BDE8F08F33
:10069000620700D4062709F1070222F0070CFCE8E4
:1006A0000223E14603F000485FEA080C02D00FF293
:1006B000702C0DE05FEA045C02D50FF2682C07E0B5
:1006C0005FEAC47C02D00FF2602C01E0AFF2700C44
:1006D0004FF0FF3823F00043CDF850C065280CD010
:1006E00006DC452809D046281DD047283DD13DE0ED
:1006F000662818D067287ED138E00021112F01DB51
:10070000112000E0781CCDE9000106A90EA8FFF732
:10071000DDFCDDE90F010E9A03910021009207F143
:10072000010A04914DE04FF000400097CDE901101F
:1007300006A90EA8FFF7CAFCDDE90F0203920E9B83
:1007400011990022DDF80CA00093049211B9791CD4
:1007500000EB010AB7EB0A0004D4C0F1FF3007F147
:10076000010A0490AAEB0700019044E0012F00DA8F
:1007700001270021112F01DD112000E03846CDE9CD
:10078000000106A90EA8FFF7A1FCDDE90F010E9AF2
:100790000391002104910092BA4621070CD40399D9
:1007A000514500DA8A46BAF1010F05DD009AAAF137
:1007B0000101515C302908D0B84202DA10F1040F6F
:1007C00006DA0121CDE9011015E0AAF10101E9E7FE
:1007D000002805DC049901440491AAEB000102E021
:1007E000411C514500DD8A460499401A401C019085
:1007F0004FF000400290200704D40198504501DBDF
:10080000CDF8048000208DF84F0002980DF14F07BD
:10081000B0F1004F25D02B200E9002984FF0020827
:1008200000280CDA404202902D200E9007E00A21A9
:100830000298FEF7ACFE3031029007F8011DB8F1C6
:100840000001A8F10108F2DC02980028EFD1791E1E
:100850000E980870307800F0200040F0450007F84E
:10086000020D12A8C01B00F107081498007800B10F
:10087000012000EB0A01019801EBE0710598414469
:10088000401A401E0590E00306D45B462146179AA5
:10089000059800F05DF805441498007818B15A46A0
:1008A000179990476D1CE00324D55B462146179AA3
:1008B000059800F04DF805441CE00498002807DB7B
:1008C000DDE90301884203DD0098405C179901E0EF
:1008D000179930205A469047049805F10105401CAD
:1008E00004900198401E019004D12E205A46179979
:1008F00090476D1CBAF10001AAF1010ADDDC05E0A8
:1009000017F8010B5A46179990476D1CB8F1000172
:10091000A8F10108F4DC5B462146179A0598ABE67E
:100920002D0000002B000000200000002DE9F04108
:10093000044600251E461746880404D405E03946BF
:100940002020B0476D1C641EF9D52846BDE8F08113
:100950002DE9F041044600251E469046C80301D506
:10096000302700E02027880404D505E041463846BA
:10097000B0476D1C641EF9D52846BDE8F0810A68B1
:10098000531C0B60107070472DE9FC470025178839
:100990000646158090F82D001446894630B13A4637
:1009A0002146484600F054FD050009D1B0784FF0CB
:1009B0000C0A18B32088C846001DB84202D9504618
:1009C000BDE8FC87684679DF0028F9D1208803213B
:1009D00008F8001020881921401C80B2208008F8F7
:1009E00000102088401C80B2208000EB0801BDF878
:1009F000000003F0CEF8218808442080F07802221D
:100A0000C8B1218896F9033001F1030C4846BC4572
:100A1000D5D8425421884FF0010C491C89B221805D
:100A200000F801C02188491C89B2218009F80130F1
:100A30002088401C20807068B8B1218890F900306F
:100A400001F1030C4846BC45B9D8425421880A221A
:100A5000491C89B2218042542188491C89B22180D5
:100A600009F801302088401C2080308950B1CDE940
:100A700000474B460622022106F1080003F0D6F893
:100A800005009DD1308A50B1CDE900474B46072281
:100A9000032106F1100003F0C9F8050090D1308B56
:100AA00050B1CDE900474B461522142106F118003C
:100AB00003F0BCF8050083D1306A30B13B462246D2
:100AC000494601F011F90500DBD1706A30B13B46AF
:100AD0002246494601F0BCFC0500D2D196F82C0014
:100AE00038B13B4622464946304602F02FFC05000D
:100AF000C7D1307838B13B4622464946304601F0EE
:100B0000D9FC0500BDD128465AE70000134A002150
:100B1000535C0BB1012203E0491C0629F8D30022E3
:100B20000F49012806D0022809D003280CD0042838
:100B300012D10DE0487810B10AB1012070478878D1
:100B400010B10AB102207047C87808B1032070477D
:100B5000087908B10420704700207047B5210020B3
:100B6000F425002010B501220221002000F064FECF
:100B700008B1072810D107220221012000F05CFEF5
:100B800008B1072808D100210A22084600F054FEC7
:100B900008B1072800D1002010BD000006480068F9
:100BA0004FF40021044A8143121D1160111D00F40D
:100BB00000200860704700000405005070B5002454
:100BC000064D06E06868012110F8340001F0B4FD1C
:100BD000641C28788442F5D3002070BDD021002009
:100BE000F8B515460C460646052A01D20720F8BD81
:100BF00001F088FE18B901F057FE0028F7D110491E
:100C000000204E600C70C1E902500E4D08610DE0ED
:100C100006EBC4006968009181788DF801100078B6
:100C2000094A694601F0DAFD0028E0D1641EE4B209
:100C3000EED2BDE8F840054A0021024800F04EB867
:100C4000D0210020803D0200B91E0200D11D02000B
:100C5000BFF34F8F05480168054A01F4E061114375
:100C60000160BFF34F8F00BFFDE700000CED00E017
:100C70000400FA050EB500210091CDE901106A4685
:100C800044F20100FFF7E4FF0EBD10B58268C368AF
:100C9000934203D001F0ECF8002010BD052010BDF8
:100CA00029B112B1531E134203D0092070470E2000
:100CB00070470160838000218160C16008467047F1
:100CC00010B58268C3689A1A83889A4203D801F0E3
:100CD000D9F8002010BD042010BD0000074B5B6850
:100CE00023B12AB120B10068037C1BB108207047F2
:100CF000072070474174426100207047F4210020B2
:100D00002DE9F047074698461446894690074FF06C
:100D1000000526D12CB302F01FFA134E06F1100085
:100D2000C6F80C800570457080F8029044607560CC
:100D3000357075701420FEF701FF06211420FEF7B0
:100D400034FF1420FEF710FF084807600621112029
:100D5000FEF72BFF0548001F0068B0600020BDE8CB
:100D6000F0870720FBE70000E42100200815014080
:100D70002DE9FC47DFF87890D9F8043073B368B3F5
:100D8000052902D20720BDE8FC87436933B3437CC1
:100D9000012B25D0002704460025884616468DF8ED
:100DA0000050684600F0CAF801A802F027FFC8B159
:100DB000012101700F4944600968C0E90218C0E9C7
:100DC00004769DF8040089F801009DF8000000F009
:100DD000D9F81420FEF7DEFE2846D4E70820D2E733
:100DE0000F46D8E704259DF8000000F0CBF8F3E7A4
:100DF000F4210020041501400649496839B130B199
:100E0000416921B100210174022102F063BC082074
:100E100070470000F421002070B50A4E01460A48D0
:100E2000B578FFF732FF04464DB10020B070711C59
:100E30000122C81D01F074FE08B1FFF71BFF204618
:100E400070BD0000042200208C270020F0B5284E41
:100E500089B01F460D00044672603BD0A8882968FF
:100E600082B22448FFF71CFF002834D1A889A96862
:100E700082B220481030FFF713FF00282BD1202228
:100E80001D496846FEF7D8FA60690690207C00B1DB
:100E900001208DF814008DF81C70607C00B10E20CC
:100EA0008DF81500E0680290A0680390206801901A
:100EB000606800900E48114A6946083001F0FCFD58
:100EC000002808D1B0702068401C04D09DF81D0097
:100ED00018B106E0072009B0F0BD0548083001F060
:100EE00075FE03490122491CC81D01F019FEF2E7F5
:100EF000042200208C270020883D0200D9380200FF
:100F000010B501460B48FFF7DBFE040010D10A487C
:100F100001F0A4FF60B9084906480839FFF7B5FE9B
:100F200030B9054901220839034801F013FF04468E
:100F3000204610BD9C2700200C22002030B5EFF386
:100F4000108172B60D4A9468012324B10370002900
:100F500000D162B630BD93604FF0E023D3F88051EA
:100F6000074C25401560C3F88041D3F88441546094
:100F70005A17C3F8842100220270E8E7AC2700204A
:100F8000FC06FFBC0B498A68002A11D000280FD14B
:100F9000EFF3108072B60B684FF0E022C2F8003118
:100FA0004B68C2F8043100228A60002800D162B682
:100FB00070470000AC2700202DE9F0410546087875
:100FC000214F012606FA00F00C463860086801F04F
:100FD00097FF0021606801F080FF28791B4901EB31
:100FE0004010A169007F00282868C0F8241519D096
:100FF000607D217D2A680843C2F86C0518E0002155
:10100000A06801F06AFF207B86403E60E06801F046
:1010100077FFD4E902122868C0F80825C0F8101537
:10102000BDE8F081607D227D29681043C1F86C0520
:10103000D4E900122868C0F80C15C0F81425207DEA
:101040000128DCD0ECE70000080500504C27002008
:10105000F0B50C4693B01F210726ADF80010ADF88F
:101060000410002750B1C17849070DD56A4602A97E
:10107000FFF78AFC002808D102AD02E00025ADF898
:1010800000706CB1E07810B1304613B0F0BD01AA29
:101090000AA92046FFF778FC0028F6D10AAA02E048
:1010A0000022ADF80470BDF80400C3B2BDF8000022
:1010B000C1B2284672DFE8E72DE9F0471F46DDF8A8
:1010C000208013468946040042D0EBB3404D0120F6
:1010D00000262870EE70202219463E48FEF7ACF933
:1010E000C5E904784FF6FF702881AE613948AE83B8
:1010F000AE7738212030FEF7B8F936482178203015
:101100000170A1788170E178C170617841703149D6
:10111000D4E90423C1E90C23D4E90223C1E90A2359
:10112000D4E90623C1E90E23616AE1B100F1380177
:1011300000F1440241628A60636A1B880B80616A25
:10114000436A8988998000E002E00021436A07E051
:101150000E20BDE8F087656AAD686D5C5554491C8A
:101160009D888D42F7D8A16AD9B11A4A9032A2F16E
:101170000C018A608162A36A9B888B80A16A836A62
:10118000098819800021836A04E0A56AAD686D5C56
:101190005554491C9D888D42F7D894F82C1080F83E
:1011A0002C10216A49B10A490A310162226A528827
:1011B0004A80216A026A09881180616801B1416030
:1011C0004946BDE8F04703482030FFF741BF000023
:1011D0009C210020F425002010B50188144C102912
:1011E00018D011291CD01B2919D1007A002816D13A
:1011F000E0780521401CB0FBF1F201FB120000BFBA
:1012000000F036F800280AD06169002907D0BDE84F
:1012100010400847C17B012901D18088208110BD81
:1012200000216171808821898842F8D10120E7E797
:101230009C21002010B574DF0B4C01200B4960711C
:101240000020E0710620C87000210848FFF700FF69
:10125000002807D1E07800F00BF810B1616901B106
:101260008847002010BD00009C210020142600208B
:101270002DE9F0413D4C804686B0207848B184F895
:10128000038004A800F00EFE0498012628B16670C1
:1012900067E0082006B0BDE8F0810025A561344F65
:1012A000A583A577787810B1E078012806D0B878C2
:1012B00058B1E078012801D0022806D1216919B17E
:1012C00026710820884700E025714046FFF71EFC84
:1012D000E070216939B1032801D0042803D138789E
:1012E00008B1607990B1A5710095029501950395BB
:1012F0008DF800508DF808501C48E1781830052909
:1013000025D2DFE801F03008111D2100E571A6713A
:1013100007208847E8E7A67001908DF80060ADF8D7
:101320000C50ADF80A5014E00221A17001908DF824
:101330000060B889ADF80C003889ADF80A0008E003
:10134000684602F047F802E0684602F067F8E07885
:1013500018B1684673DF00289CD1216909B1A078D3
:101360008847002096E7A570F7E700009C21002041
:10137000F425002070B5054601461C220F48FEF7F3
:101380005BF80F4C00262670286830B10168616058
:101390004068A060201D7ADF02E00948001D7BDF65
:1013A00000280AD14FF6FF7060806670BDE870407B
:1013B000044A00210448FFF791BC70BDC4260020F8
:1013C000BC2100209D3B02006C3D020070B51E4C0C
:1013D000068800231B49E289102E15D01B4D112EC3
:1013E0001CD0122E29D0502E17D130F8061F914252
:1013F00013D14189022910D10C3000F0F6F888B1E0
:10140000BDE8704000F0B6BC84884C800469CC60B4
:10141000406908614B70002AF2D070BD4FF6FF7032
:1014200048804B702868FFF7E7FC0028F5D0A169D9
:101430000029F2D0BDE8704008478268CA60C068E1
:101440000861DDE7BC210020C42600206C3D0200BD
:101450007CB5054608880C460930904201D90C201D
:101460007CBD68466DDF0028FAD1218808206854C9
:1014700020881B21401C80B2208029542088401CD9
:1014800080B220802844DDF801100160BDF805100D
:1014900081802088801D80B220809DF8001049083E
:1014A00000D0012129542088401C208000207CBDD0
:1014B00010B50446FFF78AFF2146074800F040F8C0
:1014C000204601F0AFFD2046FFF786FE2046BDE82E
:1014D000104000F0E3B800004C25002030B5174B59
:1014E0000D4604000FCB85B08DE80F0023D015B357
:1014F0004FF6FF70A0822868A0610020A0752146E9
:10150000684663DF002814D120788DF8120001208E
:10151000ADF81000A21C04A9A0DF002809D12946BB
:10152000204601F050FE002803D12946204602F053
:1015300047F905B030BD0E20FBE70000703D02000A
:1015400010B5002822D0002920D00A88102A18D0EF
:10155000112A18D0502A19D104468A1DC888238A16
:101560001231984202D15389022B10D0A38898429D
:101570000CD1A369002B09D052892046BDE8104048
:101580001847898801E04FF6FF71818210BD084637
:1015900000F02BF800B10120A07510BD07B584B094
:1015A00068B1828AA2F57F43FF3B0AD0827D42B1B7
:1015B000BDF81820142A06D9072007B000BD0E2058
:1015C000FBE70820F9E700220092019202920392C1
:1015D0008289039106A90291ADF8002001218DF8BE
:1015E0000210808A6946A6DFE7E7007800F0010074
:1015F0007047000000B5134889B0002300680790C9
:101600005022114907A801F069FF08B1FFF732FB2A
:101610006A460121002001F04BFF08B1FFF72AFBC9
:101620001720ADF81000684601F038FF08B1FFF749
:1016300021FB064801F028FF002801D0FFF71AFB24
:1016400009B000BDFC3C020030220020B1140200B1
:101650007CB5114E0C004FF00005306015D0694686
:10166000002000F0B1F8002815D101A9012000F0F8
:10167000ABF800280FD19DF8041009B1022003E057
:101680009DF8001001B10B202070706810B9FFF7B1
:1016900069FA054628467CBD9421002010B51A4CF5
:1016A0000188606810290ED011292BD1401E60607E
:1016B00028D1FFF757FA002824D02168002921D02B
:1016C000BDE810400847D0B900210122084600F0CB
:1016D000B3F808B107280FD107220221012000F03A
:1016E000ABF808B1072807D104220221002000F03E
:1016F000A3F820B1072802D0216801B188476068AB
:10170000401C606010BD00009421002010B5032033
:1017100000F024FA08B1062800D1002010BD000016
:101720002DE9F04707460024244802E0641C042CFD
:1017300041D250F82420BA42F8D1042C3BD21F48A1
:10174000DFF87C901F4E0C38A9F1140841B3012931
:101750000FD002292FD104EB440030444578002DEE
:1017600029D0D8F81010002925D02846BDE8F04728
:10177000084704EB4401755C0E44717861B1D8F8F8
:1017800004100F4A01EB81014900133A8068FFF70A
:10179000EFFA08B988F80170B17809F80410DEE7AB
:1017A0008068FFF729FB04EB4401314419F8040079
:1017B0008D78A842D3D0BDE8F08700003C3D020000
:1017C00090210020C825002004280CD2074A126866
:1017D000074B13F8203001209840904300D001209F
:1017E0000870002070470020FAE700001005005044
:1017F0003C3D020001460F4810B54088042907D03F
:1018000007290ED00A2914D1BDE8104001F028BEE6
:10181000132176DF0BE000280BD0BDE81040FFF766
:1018200029BAA0F57F41FF3903D1FFF703FD08284E
:10183000F1D110BD2821002070B50023042810D25A
:101840000D4D00EB4004012A02D101290CD00022E9
:10185000094E00EB4000304461B1012906D0022955
:1018600006D00723184670BD0D30C2B22A55F9E7DD
:101870004270F7E78270F5E7C8250020044A014668
:101880000020127AD20702D0084600F055B87047FF
:101890007C21002070B50E462149054600200A61D2
:1018A000C1E90165A9071BD5002401221146204684
:1018B000FFF7C2FF641C042C02D20028F5D00FE011
:1018C00070B9720804211748FFF78AF940B9FFF789
:1018D00075F928B91348144A00211438FFF7FEF9A6
:1018E000E9070AD0114A4FF4F01111600F4B0022A2
:1018F0001B1D1A600D4A1032116000280FD10948D3
:101900000B4A00211C38FFF7E9F9002807D1BDE890
:10191000704004480121074A1838FFF7DFB970BD4D
:101920007C2100204C3D0200991B0200080500505C
:101930001D2002009D0B02002DE9F84F854EDFF8B7
:1019400010A24FF4E01CF16807462CEA010C00914C
:10195000002071680AF10404251D7F4B4FF400320A
:101960004FF4802B01EB810E8146182F16D2DFE851
:1019700007F00C17173A4E607083868F868FEAA0A7
:10198000A0A0A0A0CAD1D8E1EAEA009A4FF4F011D1
:1019900091432160C5F8009086F80090BDE8F88F6B
:1019A000C4F800C04846C5F80090DAF800C08CF4CE
:1019B000F01C5FEA8C3C09D522602860022F02D11E
:1019C0004FF4E16008E04FF47A6005E02A6020609F
:1019D000022F3CD04FF4C8706422B0FBF2F04143B8
:1019E000377000225EE0C4F800C04846C5F8009099
:1019F000DAF800C08CF4F01C5FEA8C3C04D522605D
:101A000028604FF44870E7E72A6020601FE0C4F8C0
:101A100000C04846C5F80090DAF800C08CF4F01C0D
:101A20005FEA8C3C02D522602860CCE72A60206007
:101A3000D0E7C4F800C04846C5F80090DAF800C006
:101A40008CF4F01C5FEA8C3CDED522602860C82054
:101A5000C2E7C4F800C04846C5F80090DAF800C0F4
:101A60008CF4F01C5FEA8C3C02D52260286001E017
:101A70002A602060377014E0C4F800C04DE0DAF846
:101A800000002BEA0002226000F48020286008E0B9
:101A9000DAF800002BEA0001216000F480202860C1
:101AA000714600221868BDE8F84FFFF761B9216060
:101AB0002EE098465868FFF79FF9D7F1110100D042
:101AC00040B1F16801F4F0112160C5F80090C6F84A
:101AD0000C9063E74FF40022F26001290CD9C82072
:101AE00011FB00F16420B1FBF0F17068002241436A
:101AF000D8F80400FFF73CF9F16801F4F01129600F
:101B0000C4F800904AE74FF4F0112160C5F8009046
:101B1000377043E74FF4E01121604946C5F8009063
:101B200006E04FF4D01121604946C5F800905A46AE
:101B30002A60BCE74FF4C01121604946C5F8009007
:101B40004FF4C022F4E74FF4F01129604946AEE7A4
:101B5000040500507C210020303D020070B50021BA
:101B60000C4D012455F82120920002F1A042D2F838
:101B7000006704FA01F3034000D0032326F4403643
:101B800046EA0343C2F80037491C0429EAD300207F
:101B900070BD00003C3D020000780221FFF7C0BD8F
:101BA00005494FF0FF32082841F8202002D30844AD
:101BB00080F8482070470000F4260020F0B54FF070
:101BC000FF3512B10023082601E008230C260C4C37
:101BD00005E000BF54F823707F1C04D05B1CB342A7
:101BE000F8D32846F0BD26185DB286F8305044F888
:101BF0002310002AF5D1E11881F84800F1E7000030
:101C0000F42600200249084490F930007047000093
:101C1000F426002070B5084C050009D01034216866
:101C2000002907D008682060496828468847F6E7F9
:101C30000834F4E770BD0000E02600202DE9F05FD5
:101C400026484168F1B3DFF898B00E688146DBF8AA
:101C5000004087688078E11B21F07F45ED1CB0B91A
:101C6000DFF880804FF48030C8F84403C8F80403DC
:101C70001120FDF763FF1120FDF776FF4FF0010AF9
:101C8000C8F800A02F2000F0B9FC89F802A0B542E6
:101C900000D23546124BE8193C3320F07F401860E3
:101CA000DBF800105A46091B21F07F41001B20F091
:101CB0007F40C91C81420FD9106818602F2000F0A6
:101CC0009DFC00E004E0BDE8F05F1120FDF762BF7D
:101CD000BDE8F05F01F040BABDE8F09FE4210020CC
:101CE00004150140001001402DE9F0411788064617
:101CF000B81D14460D46984202D90C20BDE8F0816B
:101D00003188072206290AD34FF4486C4FF6FF7337
:101D1000614501D9994202D17088062801D2104646
:101D2000ECE7604501D99842F9D1994203D0984235
:101D300001D08142F3D80520E85520881221401CAB
:101D400080B2208029542088401C80B22080411914
:101D5000308801F01EFF2188084480B2208041199C
:101D6000708801F016FF2188084420800020C5E714
:101D7000FEF780BFF8B5134800F042F9114D002678
:101D8000114C0C3D30B16169B9B101208DF80000F2
:101D9000684611E0287820B1616971B18DF8006062
:101DA000F6E7687858B1A168084800220068FEF795
:101DB000DFFF10B1A16901B188472E70F8BD6168DD
:101DC000F2E70000C8210020C42600206C3D02007C
:101DD0002DE9F04100260125144C22E060682269BB
:101DE00000EBC607387805FA00F1114217D08A4394
:101DF000226100F04FFD02463878E36805FA00F1F1
:101E0000194002FA00F3994209D17978012901D0E9
:101E1000012100E0002151407A6802B19047761C10
:101E2000F6B220788642D9D3BDE8F081D0210020D7
:101E30000E4910B50A784C780023A24212D0521CE9
:101E4000D2B20A70022A00D10B70084A0B781832FD
:101E500052F8232002608868104420F07F40886098
:101E6000012010BD0360002010BD0000E42100200F
:101E7000826883881A4003689A5C0A708168491CEA
:101E800081607047C26883881A4003689954C168AA
:101E9000491CC160704710B50446C0B2FFF730F866
:101EA000204610BD20B10349496E016000207047F3
:101EB00003207047B82700202DE9F041124E074655
:101EC0000125BD403068FEF797FF00280DD10F4C6B
:101ED0002069284207D1384600F0DCFC0028E06881
:101EE00005D0284304E0A8432061BDE8F081A84361
:101EF000E060206928432061A1683068BDE8F041B6
:101F00000022FEF735BF0000803D0200D0210020F6
:101F1000F8B51C4C2078002832D0E068002658B173
:101F20000025607800282BD1684648DF052805D0B9
:101F300030B1FEF79FFE0AE00125F2E7012606E038
:101F4000009800F0D5FB216909B1009888479DB938
:101F50006078002814D16088ADF800006946A06858
:101F600061DF052803D020B1FEF784FE04E00125DF
:101F700002E0D4E902018847002ED2D0002DE6D03D
:101F8000F8BD00001822002070B50E460446007906
:101F900018494FF4A27501EB4010017F2068A1B1F0
:101FA0004FF4887100F0F9FF4FF49071206800F051
:101FB000F4FF4FF49271206800F0EFFF294620688B
:101FC00000F0EBFF0C49206809E04FF48E7100F03F
:101FD000D3FF2946206800F0CFFF08492068C0F8E9
:101FE0000413206800F0A5FB3146BDE8704000F006
:101FF00084BB00004C270020100302008000020078
:10200000054940880A88904204D34988884201D80B
:102010000120704700207047C02100200348017A4A
:10202000C90702D00078FFF787BC70477C210020E9
:102030002DE9F043264CA4F110092278D9F8048048
:1020400099F80350404694F801C0D9F8086031E08F
:1020500002EB42036168521C01EBC301A378D2B2C8
:10206000934200D100220B78022B02D0032B21D106
:102070001DE003464F68194603E0B94203D00B4602
:10208000C969B9B1F9E7A9B18B4205D1C06918B9DD
:10209000104E0125B56000260F68C969D96149B1A4
:1020A0000B683B440B6005E00174C06900E000214F
:1020B0000028F9D19445CBD1C9E9010689F803502C
:1020C000404502D00120BDE8F0830020FBE700007E
:1020D000F4210020001001402DE9F0412A4F044670
:1020E000002607F11005D7F804803EE002D0204614
:1020F000E4691DE02878696800EB4002401CC0B22A
:1021000001EBC2012870AA78904200D12E700A78A3
:102110004868012A2BD1027C4ABB8A684260CA689F
:1021200082600A69C26049698161F97801B14660DB
:102130004368BA68DFF854C0991A21F07F416145BD
:1021400002D28268114406E0D11A826821F07F41F0
:102150008A4202D9511A016000E0066046600121FE
:1021600086600174C66101F097FA002CBED1287810
:1021700069788842BED17968414502D00120BDE826
:10218000F0810020FBE70000E4210020FFFF7F003A
:102190002DED028B0023A6B0944A05211846FEF7C8
:1021A000AFFD08B1FEF766FD182291496846FDF7BC
:1021B00043F99048069090494FF48070CDE90701AB
:1021C000099006238D4A06A96846FEF73FFE08B12E
:1021D000FEF750FD8A4A40F6CD410320FFF75AFB37
:1021E00008B1FEF747FD69460020FFF731FA08B154
:1021F000FEF740FDFFF7FEF99DF8080081A120F0F1
:102200000F00401C20F0F00010308DF8080008226C
:1022100002A87CDF08B1FEF72DFD002400941020F9
:10222000ADF800003C200194ADF80200ADF8044088
:102230004FF4C870ADF8060068467ADF08B1FEF7C3
:1022400019FD7348009069486946B830FFF746F9B0
:1022500008B1FEF70FFD382101A8FDF706F90220AD
:102260008DF804008DF8064005208DF80700382110
:102270000FA8FDF7FAF8674801251490ADF84C5007
:1022800020211DA8FDF7F1F8402021908DF877500E
:10229000B4202290604B1DAA0FA9009401A8FEF75C
:1022A0000BFF08B1FEF7E6FC1C216846FDF7DDF8E0
:1022B0004FF42031CDE900414FF47021574802918D
:1022C0000590032156488DF80C100690A246ADF8F3
:1022D0000E408DF810406846FFF74CF808B1FEF745
:1022E000C9FC50A0FDF7ACFE0320FEF7C1FF08B10A
:1022F000FEF7C0FCFDF7FCFCDFF818B1DFF8EC904E
:102300000BF11C0BABF128079FED4A8BA7F10805D9
:1023100009F1780900245E46002006EB44010A5CBE
:102320003A54401C0228FADB3A480C38FDF7B0FC5E
:10233000022C16DB3748C01F4178007800F00F00F0
:1023400041EA0020E8808046A861FDF70FF953ECD0
:10235000182BFDF79CF8C5E90A0109EB840141F847
:10236000088C47F2305000F003F9641C122CD3DBC8
:1023700000244E462869A04222D156F82400FDF7D9
:10238000F5F853EC182BFDF782F841EC100B2148BF
:1023900085ED080B0A3853EC102BA0F800A080F84C
:1023A00002A026A1FDF75CFE1A480A38FDF768F87E
:1023B00082B218490D48AA800A39B830FFF7EEF802
:1023C00056F824101FA0FDF73BFE0F2C02DA1EA0CA
:1023D000FDF736FE641C102CCCDB1CA0FDF730FE94
:1023E0003EDF002896D0FEF745FC93E794240020BA
:1023F000083D020094220020942300207D38020032
:10240000F5170200334450535F5643550000000057
:10241000A92F02003C210020013002000D310200F2
:10242000711D02000D0A554152542053746172749B
:10243000210D0A000000000000989940252E336607
:1024400000000000256400002C0000000A000000CD
:1024500070B5144682880E4605462088111D014439
:10246000921C994201D8FE2A01D90C2070BD521C41
:1024700032542088FF21401C80B2208031542088B3
:10248000401C80B220808119288801F082FB2188BD
:10249000084480B22080AA8842B1A96841B1304482
:1024A000FCF7CAFF2088A98808442080002070BD5E
:1024B000072070BDF8B50E4601781446054601297F
:1024C00001D1687830B12088821C9A422DD8012928
:1024D00002D006E00720F8BD69780144891C9942C2
:1024E00023D8181A801E87B2ADF800702188B01C5E
:1024F000084469467DDF0028EDD12878022805D1FF
:10250000BDF80010B94201D809210AE008210128CC
:1025100005D16878B84202D8ADF8000001E0ADF806
:102520000070BDF80000FE2801D90C20F8BD2288FB
:10253000401CB0542088401C80B220803154208838
:10254000401C2080BDF80010084420800020F8BD09
:1025500000F180400068002800D00120704708B5D5
:1025600000F18040002101600068009008BD00007B
:1025700000283ED01F49204A096800BF00BF00BFA5
:1025800000BF00BF00BF00BF00BF91422FD000BFFF
:1025900000BF00BF00BF00BF00BF00BF00BF00BF43
:1025A00000BF00BF00BF00BF00BF00BF00BF00BF33
:1025B00000BF00BF00BF00BF00BF00BF00BF00BF23
:1025C00000BF00BF00BF00BF00BF00BF00BF00BF13
:1025D00000BF00BF00BF00BF00BF00BF00BF00BF03
:1025E00000BF00BF00BF00BF00BF00BF00BF401E54
:1025F000C3D170472C2200200024F40000283ED0D4
:102600001F49204A096800BF00BF00BF00BF00BFCC
:1026100000BF00BF00BF91422FD000BF00BF00BF6E
:1026200000BF00BF00BF00BF00BF00BF00BF00BFB2
:1026300000BF00BF00BF00BF00BF00BF00BF00BFA2
:1026400000BF00BF00BF00BF00BF00BF00BF00BF92
:1026500000BF00BF00BF00BF00BF00BF00BF00BF82
:1026600000BF00BF00BF00BF00BF00BF00BF00BF72
:1026700000BF00BF00BF00BF00BF401EC3D17047F6
:102680002C2200200024F40010B50B4C207808B157
:10269000852010BD0020A06060602061E060062100
:1026A00000F02BF800F04CFF012108B9034801604D
:1026B0002170002010BD0000E02600201805004019
:1026C00038B500208DF800006846FEF737FC074C4F
:1026D000207808B9FFF7D8FFE068401CE0600120CF
:1026E000A0709DF80000FEF74DFC38BDE0260020EC
:1026F000002801D1FFF78EBA70474907090E00285C
:1027000006DA00F00F0202F1E02282F8141D03E065
:1027100000F1E02282F8001400F01F020121914034
:102720004009800000F1E020C0F88012C0F80011DC
:102730007047000B40B270472DE9F047884681464C
:1027400000F0F2FC0124224E0028484618D0FFF782
:1027500059FA304490F848008009032802D0012833
:1027600006D007E01B48006804FA09F4204201D1B2
:10277000022100E003214846BDE8F04700F0CABB53
:1027800000F0DEFC002820D04846FFF73BFA054663
:10279000114F4FF4807007EB850100EB8500D1F8F5
:1027A000102580B242F00102C1F8102500F0C8FBEC
:1027B000B8F1000F09D04846FFF724FA56F8200078
:1027C000002802D0AC40C7F80443BDE8F087000001
:1027D000F426002010050050006000402DE9FC4167
:1027E000DFF8A480044608EB0400002790F93000CD
:1027F0001346C0170E46401C01D0082740E0F2786F
:1028000019462046FFF7DAF90546401C37D0B07864
:1028100048B1A00000F1A040D0F8001721F002015B
:10282000C0F8001707E000217378204600910A469F
:10283000019100F030FBF078C0B11448317800EB22
:102840008500D0F81025124B1A40C0F810254FF41F
:10285000F8524FF4403302EA042203EA01410A43EA
:10286000D0F810150A43C0F8102509E008EB050060
:10287000327810F8481F41EA8211017000E0042705
:102880003846BDE8FC810000F426002000600040CE
:10289000FFE0FCFF03490968C14011F0010000D0CE
:1028A000012070471005005070B5144D95F8540084
:1028B00008B1082070BD0020411E2A18401CC0B27B
:1028C00082F830102028F8D300242046FFF768F95A
:1028D000641CE4B20C2CF8D306210846FFF70DFF68
:1028E0004FF4BE7000F02CFB05494FF00040C1F8DA
:1028F0000403012085F85400002070BDF426002058
:1029000000600040034890F85400002800D00120E7
:1029100070470000F42600200121B1EB507F01D167
:1029200001207047002070472DE9FC5F0C4641797B
:10293000DFF804B180460BEB4117387E10B1082058
:10294000BDE8FC9F3A60207B01250128DFF8ECA060
:10295000207804D805FA00F0CAF8000001E000F081
:10296000E7FA2178A946890001F1A041C1F8005792
:1029700065784FF0FF36FF2D07D009FA05F0CAF849
:102980000000284600F0B2FA00E03546A0784FF08B
:10299000000AFF2809D0002206465346CDF800A0C1
:1029A0001146CDF804A000F065FAE078FF2804D0C5
:1029B00000F0BEFAE07800F099FA98F80520E17886
:1029C0000BEB42108176D8F800002178C0F808158A
:1029D000C0F80C55C0F81065A168C0F82415227B1A
:1029E000617B01B10121012A04D0022A05D0032A0A
:1029F00008D105E041F0020104E041F0040101E0EA
:102A000041F00601C0F854156179C0F8C015396865
:102A100011B14021C0F804130721C0F8001538682F
:102A200020B1217998F90400FFF767FE87F819A013
:102A300087F81890002083E7682500200C050050D7
:102A40001FB5069C00918DF8042002938DF80C4070
:102A50000022694600F002F804B010BDF0B413463D
:102A60000C464179124A02EB41114A7E12B1F0BC88
:102A7000112070470A6801251AB113F0140F00D114
:102A80004D7694E8C410083181E8C41011F8152F70
:102A900022F0030201F81D298A7EFF2A02D0954008
:102AA000044A156000682246F0BC00F055BD0000E5
:102AB000682500200C0500502DE9F04105460079FD
:102AC000164F904607EB40140E46E07E10B10820EA
:102AD000BDE8F081707F20772846FEF76DFA5FEA47
:102AE000080060603169216003D0317F2846FFF71C
:102AF0004BFA287907EB4010007F0028286801D0A6
:102B0000082100E00421C0F800150020E0752076BF
:102B1000A0750121E176A076DAE700004C270020BD
:102B20002DE9F0410379284D05EB431494F81CC0BE
:102B3000BCF1000F07D04FF40053B3EB114F02D09C
:102B40001020BDE8F081D4F804E000234FF40476AF
:102B50004FF40177BEF1000F09D0BCF1000FD0F89F
:102B600000C002D0CCF8086301E0CCF8087394F8F8
:102B700017C0BCF1000F14D0237E73B1616851B14E
:102B80000179006805EB4111097F11B1C0F80463B8
:102B900001E0C0F804731120D3E7216101232276FC
:102BA00004E0E2750026E16066762676047905EB9E
:102BB0004414247F1CB1BDE8F04100F073B8BDE8B7
:102BC000F04100F01BB800004C27002070B504460F
:102BD0000079094D05EB4010017F00290AD1807E64
:102BE000002807D1204600F068FB2179012005EB81
:102BF0004111887670BD00004C2700202DE9F05F60
:102C000004460079264901EB4015A87E184302D1FD
:102C1000204600F052FB68680028206806D04FF478
:102C20000171C0F804130020BDE8F09F4FF4A276B4
:102C3000314600F0A1F9B1464FF4927A4FF4847B0B
:102C40005146206800F093F906465946206800F086
:102C50008EF980464946206800F089F9074648EA1F
:102C600007003043ECD056EA070007D12946206818
:102C700000F090FAE87D697E8842E1D80020E8758E
:102C80000EB10320D0E70FB10F20CDE7A97E0120C0
:102C90000029216801D00860C5E74860C3E700004B
:102CA0004C2700202DE9F047884604464FF48875EC
:102CB000994616460068294600F06FF94FF4A2774E
:102CC0003946206800F069F92068C0F83485C0F8FA
:102CD00038652068B9F1000F13D0D0F8001241F028
:102CE0002001C0F800122079194E06EB4010406810
:102CF00050B120684FF40471C0F804130020BDE8FF
:102D0000F08701210160EEE7A946B8464FF4927AB8
:102D10004946206800F03CF907464146206800F02B
:102D200037F905465146206800F032F9014647EA76
:102D300005000843ECD02279002006EB4212D07542
:102D400009B10320DBE7002DD8D00F20D7E7000022
:102D50004C2700202DE9F047054600793E4C0E46F1
:102D600004EB4013187F38B14FF40050B0EB164F0E
:102D700002D01020BDE8F087284600F06FF808B1B7
:102D80001120F7E79A7500279E609F8228794FF0FF
:102D9000010804EB40143E46207F0028286825D017
:102DA0004FF49079494600F0F8F84FF4AC7A514668
:102DB000286800F0F2F82868A17DA268C0F84425D0
:102DC000C0F848152868C0F808806068F0B949461E
:102DD000286800F0DDF880465146286800F0D8F8F1
:102DE00058EA0001F3D058BBA7750FE04FF48E7A74
:102DF000514600F0C1F82868C0F8088021462868CC
:102E000000F0CEFC61684FF4807089B13046B1E7C4
:102E10005146286800F0ABF810B9A08A4845F7D1B0
:102E2000A08A484505D02146286800F0B9FC00E09A
:102E30008146A08AA17D8842EAD3A08A484501D173
:102E40000F26D1E75146286800F091F80028F9D004
:102E50002868C0F80C80C7E74C2700200079044997
:102E600001EB4010807D002800D001207047000059
:102E70004C27002030B541EA4201DDE9034541EA33
:102E80008301800041EA042100F1A04041EA0541AC
:102E9000C0F8001730BD30B541EA4201DDE9034515
:102EA00041EA8301800041EA042100F1A04041EAA7
:102EB0000541C0F8001730BD30B541EA4201DDE9F7
:102EC000034541EA8301800041EA042100F1A0406A
:102ED00041EA0541C0F8001730BD1CB500220B4681
:102EE000009211460192FFF7E7FF1CBD1CB50021BF
:102EF00000910B46012201911146FFF7BBFF1CBD5B
:102F00001CB5002100910B46012201911146FFF7EB
:102F1000D3FF1CBD800000F5E06000F1A040026816
:102F200022F440320260026842EA014101607047C7
:102F300001218140014801607047000008050050F0
:102F4000034908B50844002101600068009008BDED
:102F50000060004002494058012800D0002070471E
:102F6000006000404058002800D0012070474058C1
:102F7000002800D00120704708B500224250405878
:102F8000009008BDD0F80403084000D0012070472D
:102F90004058002800D00120704708B50022425058
:102FA0004058009008BD00002DE9F0410D4616463E
:102FB00011461248FCF759FA104F0024103F6FF0E9
:102FC0002F080DE0285DFDF79BFF0028FAD1386936
:102FD000295D00EB800208EB42000844641C386164
:102FE000B442EFD30D20FDF78BFF0028FAD10A2061
:102FF000FDF786FF0028FAD1BDE8F08138210020D6
:1030000010B550B103280CD10220FEF737FC002880
:1030100007D0BDE81040FDF72DBEBDE8104000F020
:103020001FBA10BD70B5384D044600886E8888B050
:103030003B2839D00DDC02283AD0102815D01128B1
:103040001BD0132822D100231A46852130467FDF6A
:1030500023E0512830D052281AD0552850D0562875
:1030600014D1A088132176DF17E00720FEF706FCB5
:1030700008B1FDF7FFFDA08807E00020FEF7FEFB8A
:1030800008B1FDF7F7FD4FF6FF70688008B070BD1E
:1030900000231A4619463046A9DF0028F6D008B0AA
:1030A000BDE87040FDF7E6BDA088132176DFF4E7A8
:1030B000A088002167DFF0E71022A11D04A8FCF71B
:1030C000BBF99DF810100029E0D09DF818000428E5
:1030D00003D0062801D00528D8D102290ED001201E
:1030E0008DF800004FF4C170ADF80400A088694667
:1030F000A8DF0028CAD0FDF7BDFDC7E70220EFE733
:10310000A0881721ADDFC8E728210020007800281B
:1031100007D104483B21408876DF002801D0FDF725
:10312000A9BD7047282100200449084490F93000C7
:10313000082801DB0120704700207047F42600209A
:103140000449084490F93000082801D20120704752
:1031500000207047F426002070B5012670044FF05F
:10316000E0210025C1F88001084C4010C4F8480354
:10317000C4F8080366602F20FFF740FAA660044CED
:103180002F20A560FFF73AFAA57070BD001001402E
:10319000E421002070B50546C87D0C4600284FF498
:1031A000847128460AD0FFF7E7FED5F81805627E3D
:1031B000E1688854607E401C607670BDFFF7DCFEDD
:1031C000D5F8180570BD30B58FB0002405460794BA
:1031D0009DF81C001C2120F00F00401C20F0F00086
:1031E00010308DF81C009DF81D0020F00F00401CD1
:1031F00020F0F00010308DF81D009DF81E0020F02A
:103200000600801C8DF81E006846FCF72EF99DF81C
:103210000000019440F010008DF8000007A8CDE9EF
:1032200004400394069428788DF83A000320ADF802
:1032300038000D949DF83400142120F00F00401C3C
:1032400020F0F00010308DF834009DF8350020F0AB
:103250000F00401C20F0F00010308DF835009DF874
:10326000360020F00600801C20F0180040F001001D
:103270008DF8360008A8FCF7F8F80EA808900DA8FD
:1032800009900120ADF828001420ADF82A40ADF8CF
:103290002C00688805F10C0308AA6946A2DF0FB06C
:1032A00030BD1FB501238DF800308DF80810019254
:1032B000D0E90012684690471FBD10B5044600686B
:1032C0004FF49271FFF758FE4FF484712068FFF7B6
:1032D00053FE20680121016010BD000010B50446B6
:1032E000FCF7E2FE40B1002C09DA04F00F0000F117
:1032F000E02090F8140D06E042F2010010BD04F148
:10330000E02090F800044109082914D299B101295C
:1033100011D004290FD005290DD00B480122816856
:1033200061B1610950F8213004F01F04A240134339
:1033300040F8213005E042F2020010BD2046FCF7C3
:103340001EFC002010BD0000AC2700202DE9F0413C
:103350000746806A14468846C8B3002531E000BF9E
:10336000B96A05EB450001EB8006B088801CFE2899
:1033700002D90C20BDE8F0812288401C08F8020028
:1033800020881622401C80B2208008F80020208867
:10339000401C80B2208000EB0801308800F0F9FB6F
:1033A0002188084480B22080B28842B1B16871B1EE
:1033B0004044FCF741F82088B188084420806D1C07
:1033C000EDB297F82C00A842CAD80020D2E7FFE758
:1033D0000720CFE710B50F490F4C0A8A42818A8A2D
:1033E0008281097891B1617981B9E17971B1022164
:1033F0000172084904202031C8700648002120309D
:10340000FDF726FE002804D1052000E00320A0706F
:10341000002010BDF42500209C21002010B50E498D
:103420000E4C0A8B42818A8B82810A78042182B1F8
:10343000627972B9E27962B10222027206482030E2
:10344000C1700021FDF704FE002804D10620A07001
:1034500000E0A170002010BDF42500209C21002078
:1034600010B50020FEF70AFA08B1FDF703FCFEF7DD
:103470004DF908B1FDF7FEFB32DF002803D0BDE8AF
:103480001040FDF7F7BB10BD18B10349C86000201C
:1034900070470E2070470000182200201CB5034919
:1034A00001910091694660DF1CBD000028210020C9
:1034B00070B50E46054614461C211046FBF7D5FF95
:1034C000012020800021A16121752672657205B15D
:1034D000A072002070BDFDF7BBBB00002DE9F041DC
:1034E000074619B188074FF0000402D00720BDE855
:1034F000F081114D4FF0E0200126A9606A806B60D9
:10350000D0F8000110F0010F03D034460020FCF782
:1035100020FB0A49384610DF070005D014B100200F
:10352000FCF72DFB3846E2E72E70FFF7C9F8BDE83F
:10353000F0411620FFF7D2BE18220020D734020037
:10354000014800787047000018220020014901203E
:1035500048707047282100202DE9F8430446106880
:103560001E4615460F464FF0000810B1FFF7D4F97C
:10357000F8B1A86810B1FFF7CFF9D0B12979286860
:10358000C4F84405C4F84815297BA868C4F8340574
:10359000C4F838154FF48C754046C4F81881D4F837
:1035A00018110091F2074FF0010107D0C4F850152F
:1035B00006E087F819801020BDE8F883C4F85005AC
:1035C000B20702D5C4F8401501E0C4F84005300741
:1035D00000D42161386848B146F38000401C4FF0A8
:1035E00040000FD0C4F804030020E5E72946204638
:1035F000FFF7B8FC0028F9D0B87EFF28F4D0FFF719
:1036000097FCF1E7C4F80803EEE700002DE9F84F56
:10361000204C00256846D4E901B6FEF709FC804637
:10362000FEF706FD0746A946B8F1000F25D0002396
:10363000009ACC46606819E007680146974202D9B3
:10364000BA1A026014E0C1F800C0D1F80C80D21B95
:10365000C8693B448A46B8F1000F07D0F71827F035
:103660007F47C1E90178CAF81C500D460028E3D114
:1036700060602846FEF730FD04E02846FEF72CFD8A
:1036800000B917B15846FEF7D9FA84F80390BDE89F
:10369000F88F0000E42100200D4B10B5596831B1BE
:1036A00002680C68A24204D8A21A0A60C16158607C
:1036B00010BD0B4603E00B46C969121B21B10C6813
:1036C0009442F8D3A41A0C600260C161D86110BDA5
:1036D000E42100207CB5064600240D468DF800400C
:1036E0006846FDF72BFC01A800F088FA70B1057060
:1036F000094946609DF8040048709DF80000FDF7F8
:1037000041FC1420FCF746FA20467CBD04249DF8B9
:103710000000FDF737FCF7E7F42100202DE9F04128
:103720001D4D6C68002C35D01C4800270068A96826
:10373000B846401A20F07F462068B04215D822468D
:10374000361A0744E469107C68B182F81080EB688F
:1037500033B1D2E90501984728B1FDF78BFA02E0B1
:10376000D2E905108847002CE6D129786878814293
:1037700006D1401CC0B26870022801D185F80180D2
:1037800005486978183040F82170BDE8F0411420F0
:10379000FCF700BABDE8F081E421002004150140E7
:1037A00070B50C4605464FF48E71FFF7E5FBA18A14
:1037B000A068415CA08A401CA082C5F81C1570BDA1
:1037C00030B58FB005461C216846FBF74EFE00243D
:1037D0009DF80000019440F00C008DF80000039467
:1037E00004940594069428788DF836000220ADF8EC
:1037F00034000C949DF83000142120F00F00401C80
:1038000020F0F00010308DF830009DF8310020F0ED
:103810000F00401C20F0F00010308DF831009DF8B2
:10382000320020F00600801C20F0180040F001005B
:103830008DF8320007A8FBF718FE0DA807900CA81A
:1038400008900120ADF824001420ADF82640ADF812
:10385000280068882B1D07AA6946A2DF0FB030BD7B
:103860001FB500228DF800208DF8081081680191A5
:103870008275D0E90012684690471FBD70B5017887
:1038800041B1012901D0022921D14068BDE8704031
:10389000FDF7F0B90F4C0E4D20782844FDF7BCFA27
:1038A0002078401CC2B2A818227010F8010C0A2817
:1038B00001D0142A0BD3064901F53370FDF76EFED3
:1038C000082802D008B1FDF7D5F90020207070BD9E
:1038D00080220020282100207CB50178274D81B36B
:1038E00001290BD002292BD18DF80010C068691C6A
:1038F00001900122C81DFFF713F93AE040680178F2
:103900001F48FDF7DDF91E4C012618B18DF8006047
:10391000019006E0A068E168814205D000208DF8A2
:103920000000696868468847A068E168081AA188AD
:10393000884207D811490122491CC81DFFF7F0F839
:103940007CBD01E0AE70FBE70D480C491030FDF77F
:103950009CF928B90949012201F10800FFF7FAF999
:10396000074810308168C0688842E9D103208DF88B
:103970000000696868468847E2E7000004220020EA
:103980008C2700202DE9FF470C4605464FF40071B7
:10399000FFF7F8FA01274FF40178002618B34FF427
:1039A000927949462846FFF7E2FAE0B149462846AF
:1039B000FFF7E2FAC5F80883A07E00B96F60022025
:1039C0008DF80000D5F88004C5F880040390E07DF0
:1039D0008DF80800E0680190E6752676D4E90012BB
:1039E0006846904727E004212846FFF7CBFA10B33A
:1039F0004FF484712846FFF7BAFAE0B12146284611
:103A0000FFF7C8FBE07D617E884214D1207E38B18B
:103A1000617EE268E0752069E0602676667607E000
:103A2000A07E00B96F60C5F80883E675617EE26824
:103A30002046FFF736FC4FF48E7841462846FFF7C4
:103A400096FA88B1A08AA17D884204D221462846F0
:103A5000FFF7A6FE08E041462846FFF78DFAA17D54
:103A600011B12046FFF7FCFE4FF4A27841462846EC
:103A7000FFF77DFA002812D041462846FFF77CFA6E
:103A8000A07E00B12F60E07D002808D0E675617E41
:103A9000E26804B02046BDE8F047FFF702BCBDE88D
:103AA000FF872DE9FF410C464FF4927705463946D2
:103AB000FFF76EFA0026C0B139462846FFF76DFAC7
:103AC00002208DF80000D5F88004C5F8800403902A
:103AD000D5F83C058DF80800E0680190E67526767B
:103AE000D4E900126846904724E04FF488773946BD
:103AF0002846FFF74DFAE8B139462846FFF74DFA58
:103B0000D5F83C05C1B2E07D884213D1207E60B17A
:103B1000E268D5F8000220F02000C5F80002207EFF
:103B2000E0752069E060267601E0E675E2682046EF
:103B3000FFF7B7FB4FF4A27739462846FFF728FA7C
:103B400068B139462846FFF728FAE07D38B1E675B6
:103B5000D5F83C05E268C1B22046FFF7A2FB4FF45E
:103B6000907631462846FFF713FA00280FD03146E9
:103B70002846FFF712FAA07D002808D0D5F84C059A
:103B800004B0C1B22046BDE8F041FFF769BEBDE810
:103B9000FF810870000A48700220704738B5154947
:103BA0004888A0F57F42FF3A23D04A78124C521C35
:103BB000D2B24A70237B93420AD3091D75DF0028D5
:103BC00017D0A169002914D001B0BDE830400847E2
:103BD00000254D70217C29B13B2176DF10B1A16910
:103BE00001B188476169002903D08DF8005068460B
:103BF000884738BDBC210020C42600200A4A10B5E1
:103C000053789478591CC9B28C4200D100211478A1
:103C10008C4201D1002010BD0170506803EB4301BC
:103C200000EBC10010BD0000F42100202DE9FC4193
:103C30001646DDE90854CDE900541F4680460222AD
:103C400000F00CF8002807D1CDE900543B461022C3
:103C50003146404600F002F8BDE8FC812DE9FC5FEA
:103C60000026DDE90C4B994692468E468046278811
:103C7000354630E0D8F80400002200EB85006946A4
:103C80000068019001A865DF002830D19DF8000090
:103C900050451FD10EB1002100E0022122880844C6
:103CA0001118594522D846B9521C90B2208009F803
:103CB00000E02088401C20800126218801A801EB1B
:103CC0000902694665DF002811D120889DF800109F
:103CD000084420806D1CB8F80000A842CADC56B128
:103CE0002088C01B401E80B2FF2802D90C20BDE8EE
:103CF000FC9F09F807000020F9E700000100000719
:103D00000030004003000100080000000600000031
:103D10000500000007000000000000000050270020
:103D2000FFFFFFFF06FF0000000000400000000052
:103D300088250020A8250020D42500200D000000A3
:103D40000E0000000F000000100000000D00030036
:103D5000211702000E000300211702000F000300CC
:103D6000211702001000030021170200A4260020E2
:103D70009ECADC240EE5A9E093F3A3B50000406ED3
:103D80006C27002003000000FFFFFFFFFFFFFFFF85
:103D9000FFFFFFFFFFFFFFFF00000000000000002B
:103DA0000000D60106010000C83D020028210020C5
:103DB0000801000088000200D03E020030220020EE
:103DC000F0250000980002000000FFFF0000000046
:103DD00000000000000000000000000001000200E0
:103DE00000000000000000000000000000000000D3
:103DF0000000000000000000180010801100118079
:103E00001200128013001380140014801500158016
:103E10001600168017001780000000000000000048
:103E20000000000000000000000000000000000092
:103E30000000000000000000000000000000000082
:103E40000000000000000000000000000000000072
:103E50000000000000000000000000000000000062
:103E60000000000000000000000000000000000052
:103E70000000000000000000000000000000000042
:103E80000000000000000000000000000000000032
:103E90000000000000000000000000000000000022
:103EA00000000000000000000000000000200040B2
:103EB0000000000000000000000000000000000002
:103EC0000000000000000000000000000090D0038F
:040000050001F40101
:00000001FF
